#NEXUS

BEGIN DATA;
	DIMENSIONS  NTAX=56 NCHAR=72;
	FORMAT SYMBOLS= " 0 1" MISSING=? GAP=- ;
MATRIX

Panderichthys_rhombolepis     000000000000000000000000000000000000000000000000000000000000000000000000
Acanthostega_gunnari          000000000000000000000000000000000000000000000000000000000000000000000111
Archeria_crassidisca          000000000000000000000000000000000000000000000000001111111111111111111111
Caerorhachis_bairdi           000000000000000000000000000000000000000000000000010000011111111111111111
Crassigyrinus_scoticus        000000000000000000000000000000000000000000000000000000000000000000011111
Diploceraspis_burkei          000000000000000000000000000000000000000000000011100000100111111111111111
Discosauriscus_austriacus     000000000000000000000000000000000000000000000000000011111111111111111111
Doragnathus_woodi             000000000000000000000000000000000000000000111100000000000000001111111111
Gephyrostegus_bohemicus       000000000000000000000000000000000000000000000000000111111111111111111111
Greererpeton_burkemorani      000000000000000000000000000000000000000001011100000000000000000011111111
Ichthyostega_stensioei        000000000000000000000000000000000000000000000000000000000000000000000011
Megalocephalus_pachycephalus  000000000000000000000000000000000000000000000000000000000000010111111111
Microbrachis_pelikani         000000000000000000000000000000000000000010000001110001111111111111111111
NMS987GF65_dot_1              000000000000000000000000000000000000000000000000000000000000110001111111
Occidens_portlocki            000000000000000000000000000000000000000101000100000000000000000010111111
Pantylus_cordatus             000000000000000000000000000000000000000010000000110001111111111111111111
Pholiderpeton_scutigerum      000000000000000000000000000000000000000000000000001111111111111111111111
Sigournea_multidentata        000000000000000000000000000000000000000101001100000000000000000011111111
Spathicephalus_mirus          000000000000000000000000000000000000000000100000000000000001111111111111
Ventastega_curonica           000000000000000000000000000000000000000000000000000000000000000000000001
Whatcheeria_deltae            000000000000000000000000000000000000000000000000000000000000000000001111
Acanthostomatops_vorax        000000000000000000000000000111111111111000000010000000001011111111111111
Archegosaurus_decheni         000000000000000000000000011011111111111000000010000000001011111111111111
Balanerpeton_woodi            000000000000000000000000000000000001111000000010000000001011111111111111
Bathignathus_poikilops        000000000000000001111111100000001111111000000010000000001011111111111111
Benthosuchus_sushkini         000000000001111110000011100000001111111000000010000000001011111111111111
Cheliderpeton_latirostre      000000000010000000000000011011111111111000000010000000001011111111111111
Chomatobatrachus_halei        000000000100000110000011100000001111111000000010000000001011111111111111
Cochleosaurus_bohemicus       000000001000000000000000000000000000011000000010000000001011111111111111
Cochleosaurus_florensis       000000001000000000000000000000000000011000000010000000001011111111111111
Compsocerops_cosgriffi        000000010000000000111111100000001111111000000010000000001011111111111111
Dutuitosaurus_ouazzoui        000000000000111110000011100000001111111000000010000000001011111111111111
Dvinosaurus_primus            000011100000000000000001100000001111111000000010000000001011111111111111
Ecolsonia_cutlerensis         000000000000000000000000000000010111111000000010000000001011111111111111
Edops_craigi                  000000000000000000000000000000101010101000000010000000001011111111111111
Eryops_megacephalus           000100000010000000000000011011111111111000000010000000001011111111111111
Hadrokkosaurus_bradyi         000000000000000000000111100000001111111000000010000000001011111111111111
Inflectosaurus_amplus         000000000000011110000011100000001111111000000010000000001011111111111111
Karroosuchus_haughtoni        001000000000001110000011100000001111111000000010000000001011111111111111
Koolasuchus_cleelandi         010000010000000000111111100000001111111000000010000000001011111111111111
Kupferzellia_wildi            100000000000000010000011100000001111111000000010000000001011111111111111
Lydekkerina_huxleyi           000000000100000110000011100000001111111000000010000000001011111111111111
Mastodonsaurus_giganteus      100000000000000010000011100000001111111000000010000000001011111111111111
Micromelerpeton_credneri      000000000000000000000000100000001111111000000010000000001011111111111111
Onchiodon_labyrinthicus       000100000010000000000000011011111111111000000010000000001011111111111111
Phonerpeton_pricei            000000000000000000000000000001111111111000000010000000001011111111111111
QMF14493                      000000000000000001011111100000001111111000000010000000001011111111111111
Rhineceps_nyasaensis          000000100000000000000001100000001111111000000010000000001011111111111111
Sclerocephalus_haeuseri       000000000000000000000000001011111111111000000010000000001011111111111111
Siderops_kehli                010000010000000000111111100000001111111000000010000000001011111111111111
Thoosuchus_yakovlevi          000000000001111110000011100000001111111000000010000000001011111111111111
Trimerorhachis_insignis       000001100000000000000001100000001111111000000010000000001011111111111111
Tryphosuchus_paucidens        000011100000000000000001100000001111111000000010000000001011111111111111
Vanastega_plurimidens         000000000000000000001111100000001111111000000010000000001011111111111111
Xenotosuchus_africanus        001000000000001110000011100000001111111000000010000000001011111111111111
Zatrachys_serratus            000000000000000000000000000111111111111000000010000000001011111111111111
;
END;

BEGIN ASSUMPTIONS;
	OPTIONS  DEFTYPE=unord PolyTcount=MINSTEPS ;
END;
